{"abi":[{"type":"constructor","inputs":[],"stateMutability":"nonpayable"},{"type":"function","name":"POOL","inputs":[],"outputs":[{"name":"","type":"address","internalType":"contract IPool"}],"stateMutability":"view"},{"type":"function","name":"executeArb","inputs":[{"name":"tokenIn","type":"address","internalType":"address"},{"name":"tokenOut","type":"address","internalType":"address"},{"name":"poolBuy","type":"address","internalType":"address"},{"name":"poolSell","type":"address","internalType":"address"},{"name":"amountIn","type":"uint256","internalType":"uint256"},{"name":"amount0OutBuy","type":"uint256","internalType":"uint256"},{"name":"amount1OutBuy","type":"uint256","internalType":"uint256"},{"name":"amount0OutSell","type":"uint256","internalType":"uint256"},{"name":"amount1OutSell","type":"uint256","internalType":"uint256"}],"outputs":[],"stateMutability":"nonpayable"},{"type":"function","name":"executeOperation","inputs":[{"name":"asset","type":"address","internalType":"address"},{"name":"amount","type":"uint256","internalType":"uint256"},{"name":"premium","type":"uint256","internalType":"uint256"},{"name":"initiator","type":"address","internalType":"address"},{"name":"params","type":"bytes","internalType":"bytes"}],"outputs":[{"name":"","type":"bool","internalType":"bool"}],"stateMutability":"nonpayable"},{"type":"function","name":"owner","inputs":[],"outputs":[{"name":"","type":"address","internalType":"address"}],"stateMutability":"view"}],"bytecode":{"object":"0x60a0604052348015600e575f5ffd5b503373ffffffffffffffffffffffffffffffffffffffff1660808173ffffffffffffffffffffffffffffffffffffffff16815250506080516111946100625f395f8181610559015261074701526111945ff3fe608060405234801561000f575f5ffd5b506004361061004a575f3560e01c80631b11d0ff1461004e5780636f58bea81461007e5780637535d2461461009a5780638da5cb5b146100b8575b5f5ffd5b61006860048036038101906100639190610868565b6100d6565b6040516100759190610918565b60405180910390f35b61009860048036038101906100939190610931565b610557565b005b6100a261072d565b6040516100af9190610a50565b60405180910390f35b6100c0610745565b6040516100cd9190610a78565b60405180910390f35b5f7387870bca3f3fd6335c3f4ce8392d69350b4fa4e273ffffffffffffffffffffffffffffffffffffffff163373ffffffffffffffffffffffffffffffffffffffff1614610159576040517f08c379a000000000000000000000000000000000000000000000000000000000815260040161015090610aeb565b60405180910390fd5b3073ffffffffffffffffffffffffffffffffffffffff168473ffffffffffffffffffffffffffffffffffffffff16146101c7576040517f08c379a00000000000000000000000000000000000000000000000000000000081526004016101be90610b53565b60405180910390fd5b5f83838101906101d79190610cda565b90505f815f015173ffffffffffffffffffffffffffffffffffffffff166370a08231306040518263ffffffff1660e01b81526004016102169190610a78565b602060405180830381865afa158015610231573d5f5f3e3d5ffd5b505050506040513d601f19601f820116820180604052508101906102559190610d1a565b9050815f015173ffffffffffffffffffffffffffffffffffffffff1663a9059cbb836040015184608001516040518363ffffffff1660e01b815260040161029d929190610d54565b6020604051808303815f875af11580156102b9573d5f5f3e3d5ffd5b505050506040513d601f19601f820116820180604052508101906102dd9190610da5565b61031c576040517f08c379a000000000000000000000000000000000000000000000000000000000815260040161031390610e1a565b60405180910390fd5b816040015173ffffffffffffffffffffffffffffffffffffffff1663022c0d9f8360a001518460c00151306040518463ffffffff1660e01b815260040161036593929190610e6b565b5f604051808303815f87803b15801561037c575f5ffd5b505af115801561038e573d5f5f3e3d5ffd5b505050505f826020015173ffffffffffffffffffffffffffffffffffffffff166370a08231306040518263ffffffff1660e01b81526004016103d09190610a78565b602060405180830381865afa1580156103eb573d5f5f3e3d5ffd5b505050506040513d601f19601f8201168201806040525081019061040f9190610d1a565b9050826020015173ffffffffffffffffffffffffffffffffffffffff1663a9059cbb8460600151836040518363ffffffff1660e01b8152600401610454929190610d54565b6020604051808303815f875af1158015610470573d5f5f3e3d5ffd5b505050506040513d601f19601f820116820180604052508101906104949190610da5565b6104d3576040517f08c379a00000000000000000000000000000000000000000000000000000000081526004016104ca90610efd565b60405180910390fd5b826060015173ffffffffffffffffffffffffffffffffffffffff1663022c0d9f8460e00151856101000151306040518463ffffffff1660e01b815260040161051d93929190610e6b565b5f604051808303815f87803b158015610534575f5ffd5b505af1158015610546573d5f5f3e3d5ffd5b505050505050509695505050505050565b7f000000000000000000000000000000000000000000000000000000000000000073ffffffffffffffffffffffffffffffffffffffff163373ffffffffffffffffffffffffffffffffffffffff16146105e5576040517f08c379a00000000000000000000000000000000000000000000000000000000081526004016105dc90610f65565b60405180910390fd5b5f6040518061012001604052808b73ffffffffffffffffffffffffffffffffffffffff1681526020018a73ffffffffffffffffffffffffffffffffffffffff1681526020018973ffffffffffffffffffffffffffffffffffffffff1681526020018873ffffffffffffffffffffffffffffffffffffffff1681526020018781526020018681526020018581526020018481526020018381525060405160200161068e9190611056565b60405160208183030381529060405290507387870bca3f3fd6335c3f4ce8392d69350b4fa4e273ffffffffffffffffffffffffffffffffffffffff166342b0b77c308c89855f6040518663ffffffff1660e01b81526004016106f4959493929190611106565b5f604051808303815f87803b15801561070b575f5ffd5b505af115801561071d573d5f5f3e3d5ffd5b5050505050505050505050505050565b7387870bca3f3fd6335c3f4ce8392d69350b4fa4e281565b7f000000000000000000000000000000000000000000000000000000000000000081565b5f604051905090565b5f5ffd5b5f5ffd5b5f73ffffffffffffffffffffffffffffffffffffffff82169050919050565b5f6107a38261077a565b9050919050565b6107b381610799565b81146107bd575f5ffd5b50565b5f813590506107ce816107aa565b92915050565b5f819050919050565b6107e6816107d4565b81146107f0575f5ffd5b50565b5f81359050610801816107dd565b92915050565b5f5ffd5b5f5ffd5b5f5ffd5b5f5f83601f84011261082857610827610807565b5b8235905067ffffffffffffffff8111156108455761084461080b565b5b6020830191508360018202830111156108615761086061080f565b5b9250929050565b5f5f5f5f5f5f60a0878903121561088257610881610772565b5b5f61088f89828a016107c0565b96505060206108a089828a016107f3565b95505060406108b189828a016107f3565b94505060606108c289828a016107c0565b935050608087013567ffffffffffffffff8111156108e3576108e2610776565b5b6108ef89828a01610813565b92509250509295509295509295565b5f8115159050919050565b610912816108fe565b82525050565b5f60208201905061092b5f830184610909565b92915050565b5f5f5f5f5f5f5f5f5f6101208a8c03121561094f5761094e610772565b5b5f61095c8c828d016107c0565b995050602061096d8c828d016107c0565b985050604061097e8c828d016107c0565b975050606061098f8c828d016107c0565b96505060806109a08c828d016107f3565b95505060a06109b18c828d016107f3565b94505060c06109c28c828d016107f3565b93505060e06109d38c828d016107f3565b9250506101006109e58c828d016107f3565b9150509295985092959850929598565b5f819050919050565b5f610a18610a13610a0e8461077a565b6109f5565b61077a565b9050919050565b5f610a29826109fe565b9050919050565b5f610a3a82610a1f565b9050919050565b610a4a81610a30565b82525050565b5f602082019050610a635f830184610a41565b92915050565b610a7281610799565b82525050565b5f602082019050610a8b5f830184610a69565b92915050565b5f82825260208201905092915050565b7f4e6f7420416176650000000000000000000000000000000000000000000000005f82015250565b5f610ad5600883610a91565b9150610ae082610aa1565b602082019050919050565b5f6020820190508181035f830152610b0281610ac9565b9050919050565b7f4e6f7420696e69746961746564206279207573000000000000000000000000005f82015250565b5f610b3d601383610a91565b9150610b4882610b09565b602082019050919050565b5f6020820190508181035f830152610b6a81610b31565b9050919050565b5f5ffd5b5f601f19601f8301169050919050565b7f4e487b71000000000000000000000000000000000000000000000000000000005f52604160045260245ffd5b610bbb82610b75565b810181811067ffffffffffffffff82111715610bda57610bd9610b85565b5b80604052505050565b5f610bec610769565b9050610bf88282610bb2565b919050565b5f6101208284031215610c1357610c12610b71565b5b610c1e610120610be3565b90505f610c2d848285016107c0565b5f830152506020610c40848285016107c0565b6020830152506040610c54848285016107c0565b6040830152506060610c68848285016107c0565b6060830152506080610c7c848285016107f3565b60808301525060a0610c90848285016107f3565b60a08301525060c0610ca4848285016107f3565b60c08301525060e0610cb8848285016107f3565b60e083015250610100610ccd848285016107f3565b6101008301525092915050565b5f6101208284031215610cf057610cef610772565b5b5f610cfd84828501610bfd565b91505092915050565b5f81519050610d14816107dd565b92915050565b5f60208284031215610d2f57610d2e610772565b5b5f610d3c84828501610d06565b91505092915050565b610d4e816107d4565b82525050565b5f604082019050610d675f830185610a69565b610d746020830184610d45565b9392505050565b610d84816108fe565b8114610d8e575f5ffd5b50565b5f81519050610d9f81610d7b565b92915050565b5f60208284031215610dba57610db9610772565b5b5f610dc784828501610d91565b91505092915050565b7f5472616e736665722031206661696c65640000000000000000000000000000005f82015250565b5f610e04601183610a91565b9150610e0f82610dd0565b602082019050919050565b5f6020820190508181035f830152610e3181610df8565b9050919050565b5f82825260208201905092915050565b50565b5f610e565f83610e38565b9150610e6182610e48565b5f82019050919050565b5f608082019050610e7e5f830186610d45565b610e8b6020830185610d45565b610e986040830184610a69565b8181036060830152610ea981610e4b565b9050949350505050565b7f5472616e736665722032206661696c65640000000000000000000000000000005f82015250565b5f610ee7601183610a91565b9150610ef282610eb3565b602082019050919050565b5f6020820190508181035f830152610f1481610edb565b9050919050565b7f4e6f74206f776e657200000000000000000000000000000000000000000000005f82015250565b5f610f4f600983610a91565b9150610f5a82610f1b565b602082019050919050565b5f6020820190508181035f830152610f7c81610f43565b9050919050565b610f8c81610799565b82525050565b610f9b816107d4565b82525050565b61012082015f820151610fb65f850182610f83565b506020820151610fc96020850182610f83565b506040820151610fdc6040850182610f83565b506060820151610fef6060850182610f83565b5060808201516110026080850182610f92565b5060a082015161101560a0850182610f92565b5060c082015161102860c0850182610f92565b5060e082015161103b60e0850182610f92565b50610100820151611050610100850182610f92565b50505050565b5f6101208201905061106a5f830184610fa1565b92915050565b5f81519050919050565b8281835e5f83830152505050565b5f61109282611070565b61109c8185610e38565b93506110ac81856020860161107a565b6110b581610b75565b840191505092915050565b5f819050919050565b5f61ffff82169050919050565b5f6110f06110eb6110e6846110c0565b6109f5565b6110c9565b9050919050565b611100816110d6565b82525050565b5f60a0820190506111195f830188610a69565b6111266020830187610a69565b6111336040830186610d45565b81810360608301526111458185611088565b905061115460808301846110f7565b969550505050505056fea2646970667358221220a724aa3bb67b01a7bf3c529140eee26f6e6b504f593df96c49cc83af332b519e64736f6c63430008210033","linkReferences":{}},"methodIdentifiers":{"POOL()":"7535d246","executeArb(address,address,address,address,uint256,uint256,uint256,uint256,uint256)":"6f58bea8","executeOperation(address,uint256,uint256,address,bytes)":"1b11d0ff","owner()":"8da5cb5b"},"id":0}